{
  "_format": "hh-sol-artifact-1",
  "contractName": "staking",
  "sourceName": "contracts/staking.sol",
  "abi": [
    {
      "anonymous": false,
      "inputs": [
        {
          "indexed": true,
          "internalType": "address",
          "name": "previousOwner",
          "type": "address"
        },
        {
          "indexed": true,
          "internalType": "address",
          "name": "newOwner",
          "type": "address"
        }
      ],
      "name": "OwnershipTransferred",
      "type": "event"
    },
    {
      "inputs": [
        {
          "internalType": "address",
          "name": "add",
          "type": "address"
        }
      ],
      "name": "RemoveWhiteListAddress",
      "outputs": [],
      "stateMutability": "nonpayable",
      "type": "function"
    },
    {
      "inputs": [
        {
          "internalType": "string",
          "name": "ticker",
          "type": "string"
        }
      ],
      "name": "checkBalance",
      "outputs": [
        {
          "internalType": "uint256",
          "name": "",
          "type": "uint256"
        }
      ],
      "stateMutability": "view",
      "type": "function"
    },
    {
      "inputs": [
        {
          "internalType": "string",
          "name": "ticker",
          "type": "string"
        }
      ],
      "name": "gettoken",
      "outputs": [],
      "stateMutability": "nonpayable",
      "type": "function"
    },
    {
      "inputs": [],
      "name": "owner",
      "outputs": [
        {
          "internalType": "address",
          "name": "",
          "type": "address"
        }
      ],
      "stateMutability": "view",
      "type": "function"
    },
    {
      "inputs": [],
      "name": "renounceOwnership",
      "outputs": [],
      "stateMutability": "nonpayable",
      "type": "function"
    },
    {
      "inputs": [
        {
          "internalType": "uint256",
          "name": "rate",
          "type": "uint256"
        }
      ],
      "name": "setIntrestrate",
      "outputs": [],
      "stateMutability": "nonpayable",
      "type": "function"
    },
    {
      "inputs": [
        {
          "internalType": "string",
          "name": "ticker",
          "type": "string"
        },
        {
          "internalType": "address",
          "name": "add",
          "type": "address"
        }
      ],
      "name": "setTickerToTokenAddress",
      "outputs": [],
      "stateMutability": "nonpayable",
      "type": "function"
    },
    {
      "inputs": [
        {
          "internalType": "uint256",
          "name": "amount",
          "type": "uint256"
        },
        {
          "internalType": "string",
          "name": "ticker",
          "type": "string"
        }
      ],
      "name": "stake",
      "outputs": [],
      "stateMutability": "nonpayable",
      "type": "function"
    },
    {
      "inputs": [
        {
          "internalType": "address",
          "name": "newOwner",
          "type": "address"
        }
      ],
      "name": "transferOwnership",
      "outputs": [],
      "stateMutability": "nonpayable",
      "type": "function"
    },
    {
      "inputs": [
        {
          "internalType": "string",
          "name": "ticker",
          "type": "string"
        }
      ],
      "name": "withdraw",
      "outputs": [],
      "stateMutability": "nonpayable",
      "type": "function"
    }
  ],
  "bytecode": "0x6080604052600860015534801561001557600080fd5b5061003261002761003760201b60201c565b61003f60201b60201c565b610103565b600033905090565b60008060009054906101000a900473ffffffffffffffffffffffffffffffffffffffff169050816000806101000a81548173ffffffffffffffffffffffffffffffffffffffff021916908373ffffffffffffffffffffffffffffffffffffffff1602179055508173ffffffffffffffffffffffffffffffffffffffff168173ffffffffffffffffffffffffffffffffffffffff167f8be0079c531659141344cd1fd0a4f28419497f9722a3daafe3b4186f6b6457e060405160405180910390a35050565b61147d806101126000396000f3fe608060405234801561001057600080fd5b506004361061009e5760003560e01c8063973900a011610066578063973900a01461011f578063d4a72c201461014f578063d5a095fc1461016b578063e7e4e1f714610187578063f2fde38b146101a35761009e565b806331fb67c2146100a357806370b620a2146100bf578063715018a6146100db5780638da5cb5b146100e5578063946f656f14610103575b600080fd5b6100bd60048036038101906100b89190610e31565b6101bf565b005b6100d960048036038101906100d49190610e31565b61044b565b005b6100e3610529565b005b6100ed6105b1565b6040516100fa9190611078565b60405180910390f35b61011d60048036038101906101189190610ec6565b6105da565b005b61013960048036038101906101349190610e31565b610660565b6040516101469190611133565b60405180910390f35b61016960048036038101906101649190610e72565b610730565b005b61018560048036038101906101809190610ddf565b610865565b005b6101a1600480360381019061019c9190610f18565b61093c565b005b6101bd60048036038101906101b89190610ddf565b610b5f565b005b603c600260003373ffffffffffffffffffffffffffffffffffffffff1673ffffffffffffffffffffffffffffffffffffffff168152602001908152602001600020544261020c91906112b7565b101561021757600080fd5b6000600260003373ffffffffffffffffffffffffffffffffffffffff1673ffffffffffffffffffffffffffffffffffffffff168152602001908152602001600020544261026491906112b7565b905060006509184e72a00060058460405161027f9190611061565b908152602001604051809103902060003373ffffffffffffffffffffffffffffffffffffffff1673ffffffffffffffffffffffffffffffffffffffff168152602001908152602001600020546283d6006509184e72a000600154866102e4919061125d565b6102ee919061125d565b6102f8919061122c565b610302919061125d565b61030c919061122c565b90506000816005856040516103219190611061565b908152602001604051809103902060003373ffffffffffffffffffffffffffffffffffffffff1673ffffffffffffffffffffffffffffffffffffffff1681526020019081526020016000205461037791906111d6565b90506004846040516103899190611061565b908152602001604051809103902060009054906101000a900473ffffffffffffffffffffffffffffffffffffffff1673ffffffffffffffffffffffffffffffffffffffff1663a9059cbb33836040518363ffffffff1660e01b81526004016103f29291906110ca565b602060405180830381600087803b15801561040c57600080fd5b505af1158015610420573d6000803e3d6000fd5b505050506040513d601f19601f820116820180604052508101906104449190610e08565b5050505050565b6000683635c9adc5dea0000090506004826040516104699190611061565b908152602001604051809103902060009054906101000a900473ffffffffffffffffffffffffffffffffffffffff1673ffffffffffffffffffffffffffffffffffffffff1663a9059cbb33836040518363ffffffff1660e01b81526004016104d29291906110ca565b602060405180830381600087803b1580156104ec57600080fd5b505af1158015610500573d6000803e3d6000fd5b505050506040513d601f19601f820116820180604052508101906105249190610e08565b505050565b610531610c57565b73ffffffffffffffffffffffffffffffffffffffff1661054f6105b1565b73ffffffffffffffffffffffffffffffffffffffff16146105a5576040517f08c379a000000000000000000000000000000000000000000000000000000000815260040161059c90611113565b60405180910390fd5b6105af6000610c5f565b565b60008060009054906101000a900473ffffffffffffffffffffffffffffffffffffffff16905090565b6105e2610c57565b73ffffffffffffffffffffffffffffffffffffffff166106006105b1565b73ffffffffffffffffffffffffffffffffffffffff1614610656576040517f08c379a000000000000000000000000000000000000000000000000000000000815260040161064d90611113565b60405180910390fd5b8060018190555050565b60006004826040516106729190611061565b908152602001604051809103902060009054906101000a900473ffffffffffffffffffffffffffffffffffffffff1673ffffffffffffffffffffffffffffffffffffffff166370a08231336040518263ffffffff1660e01b81526004016106d99190611078565b60206040518083038186803b1580156106f157600080fd5b505afa158015610705573d6000803e3d6000fd5b505050506040513d601f19601f820116820180604052508101906107299190610eef565b9050919050565b610738610c57565b73ffffffffffffffffffffffffffffffffffffffff166107566105b1565b73ffffffffffffffffffffffffffffffffffffffff16146107ac576040517f08c379a00000000000000000000000000000000000000000000000000000000081526004016107a390611113565b60405180910390fd5b806004836040516107bd9190611061565b908152602001604051809103902060006101000a81548173ffffffffffffffffffffffffffffffffffffffff021916908373ffffffffffffffffffffffffffffffffffffffff1602179055506001600360008373ffffffffffffffffffffffffffffffffffffffff1673ffffffffffffffffffffffffffffffffffffffff16815260200190815260200160002060006101000a81548160ff0219169083151502179055505050565b61086d610c57565b73ffffffffffffffffffffffffffffffffffffffff1661088b6105b1565b73ffffffffffffffffffffffffffffffffffffffff16146108e1576040517f08c379a00000000000000000000000000000000000000000000000000000000081526004016108d890611113565b60405180910390fd5b6000600360008373ffffffffffffffffffffffffffffffffffffffff1673ffffffffffffffffffffffffffffffffffffffff16815260200190815260200160002060006101000a81548160ff02191690831515021790555050565b42600260003373ffffffffffffffffffffffffffffffffffffffff1673ffffffffffffffffffffffffffffffffffffffff1681526020019081526020016000208190555060011515600360006004846040516109989190611061565b908152602001604051809103902060009054906101000a900473ffffffffffffffffffffffffffffffffffffffff1673ffffffffffffffffffffffffffffffffffffffff1673ffffffffffffffffffffffffffffffffffffffff16815260200190815260200160002060009054906101000a900460ff16151514610a1b57600080fd5b81600582604051610a2c9190611061565b908152602001604051809103902060003373ffffffffffffffffffffffffffffffffffffffff1673ffffffffffffffffffffffffffffffffffffffff1681526020019081526020016000206000828254610a8691906111d6565b92505081905550600481604051610a9d9190611061565b908152602001604051809103902060009054906101000a900473ffffffffffffffffffffffffffffffffffffffff1673ffffffffffffffffffffffffffffffffffffffff166323b872dd3330856040518463ffffffff1660e01b8152600401610b0893929190611093565b602060405180830381600087803b158015610b2257600080fd5b505af1158015610b36573d6000803e3d6000fd5b505050506040513d601f19601f82011682018060405250810190610b5a9190610e08565b505050565b610b67610c57565b73ffffffffffffffffffffffffffffffffffffffff16610b856105b1565b73ffffffffffffffffffffffffffffffffffffffff1614610bdb576040517f08c379a0000000000000000000000000000000000000000000000000000000008152600401610bd290611113565b60405180910390fd5b600073ffffffffffffffffffffffffffffffffffffffff168173ffffffffffffffffffffffffffffffffffffffff161415610c4b576040517f08c379a0000000000000000000000000000000000000000000000000000000008152600401610c42906110f3565b60405180910390fd5b610c5481610c5f565b50565b600033905090565b60008060009054906101000a900473ffffffffffffffffffffffffffffffffffffffff169050816000806101000a81548173ffffffffffffffffffffffffffffffffffffffff021916908373ffffffffffffffffffffffffffffffffffffffff1602179055508173ffffffffffffffffffffffffffffffffffffffff168173ffffffffffffffffffffffffffffffffffffffff167f8be0079c531659141344cd1fd0a4f28419497f9722a3daafe3b4186f6b6457e060405160405180910390a35050565b6000610d36610d318461117f565b61114e565b905082815260208101848484011115610d4e57600080fd5b610d59848285611333565b509392505050565b600081359050610d7081611402565b92915050565b600081519050610d8581611419565b92915050565b600082601f830112610d9c57600080fd5b8135610dac848260208601610d23565b91505092915050565b600081359050610dc481611430565b92915050565b600081519050610dd981611430565b92915050565b600060208284031215610df157600080fd5b6000610dff84828501610d61565b91505092915050565b600060208284031215610e1a57600080fd5b6000610e2884828501610d76565b91505092915050565b600060208284031215610e4357600080fd5b600082013567ffffffffffffffff811115610e5d57600080fd5b610e6984828501610d8b565b91505092915050565b60008060408385031215610e8557600080fd5b600083013567ffffffffffffffff811115610e9f57600080fd5b610eab85828601610d8b565b9250506020610ebc85828601610d61565b9150509250929050565b600060208284031215610ed857600080fd5b6000610ee684828501610db5565b91505092915050565b600060208284031215610f0157600080fd5b6000610f0f84828501610dca565b91505092915050565b60008060408385031215610f2b57600080fd5b6000610f3985828601610db5565b925050602083013567ffffffffffffffff811115610f5657600080fd5b610f6285828601610d8b565b9150509250929050565b610f75816112eb565b82525050565b6000610f86826111af565b610f9081856111cb565b9350610fa0818560208601611342565b80840191505092915050565b6000610fb96026836111ba565b91507f4f776e61626c653a206e6577206f776e657220697320746865207a65726f206160008301527f64647265737300000000000000000000000000000000000000000000000000006020830152604082019050919050565b600061101f6020836111ba565b91507f4f776e61626c653a2063616c6c6572206973206e6f7420746865206f776e65726000830152602082019050919050565b61105b81611329565b82525050565b600061106d8284610f7b565b915081905092915050565b600060208201905061108d6000830184610f6c565b92915050565b60006060820190506110a86000830186610f6c565b6110b56020830185610f6c565b6110c26040830184611052565b949350505050565b60006040820190506110df6000830185610f6c565b6110ec6020830184611052565b9392505050565b6000602082019050818103600083015261110c81610fac565b9050919050565b6000602082019050818103600083015261112c81611012565b9050919050565b60006020820190506111486000830184611052565b92915050565b6000604051905081810181811067ffffffffffffffff82111715611175576111746113d3565b5b8060405250919050565b600067ffffffffffffffff82111561119a576111996113d3565b5b601f19601f8301169050602081019050919050565b600081519050919050565b600082825260208201905092915050565b600081905092915050565b60006111e182611329565b91506111ec83611329565b9250827fffffffffffffffffffffffffffffffffffffffffffffffffffffffffffffffff0382111561122157611220611375565b5b828201905092915050565b600061123782611329565b915061124283611329565b925082611252576112516113a4565b5b828204905092915050565b600061126882611329565b915061127383611329565b9250817fffffffffffffffffffffffffffffffffffffffffffffffffffffffffffffffff04831182151516156112ac576112ab611375565b5b828202905092915050565b60006112c282611329565b91506112cd83611329565b9250828210156112e0576112df611375565b5b828203905092915050565b60006112f682611309565b9050919050565b60008115159050919050565b600073ffffffffffffffffffffffffffffffffffffffff82169050919050565b6000819050919050565b82818337600083830152505050565b60005b83811015611360578082015181840152602081019050611345565b8381111561136f576000848401525b50505050565b7f4e487b7100000000000000000000000000000000000000000000000000000000600052601160045260246000fd5b7f4e487b7100000000000000000000000000000000000000000000000000000000600052601260045260246000fd5b7f4e487b7100000000000000000000000000000000000000000000000000000000600052604160045260246000fd5b61140b816112eb565b811461141657600080fd5b50565b611422816112fd565b811461142d57600080fd5b50565b61143981611329565b811461144457600080fd5b5056fea2646970667358221220f6a6f3dd7223d265590bd5b8880d281519035a9d6beadea5c16ee965286b1a5b64736f6c63430008000033",
  "linkReferences": {},
  "deployedLinkReferences": {}
}